{
  "_format": "hh-sol-artifact-1",
  "contractName": "SharpToken",
  "sourceName": "contracts/SharpToken.sol",
  "abi": [
    {
      "inputs": [
        {
          "internalType": "address",
          "name": "initialOwner",
          "type": "address"
        }
      ],
      "stateMutability": "nonpayable",
      "type": "constructor"
    },
    {
      "inputs": [
        {
          "internalType": "address",
          "name": "spender",
          "type": "address"
        },
        {
          "internalType": "uint256",
          "name": "allowance",
          "type": "uint256"
        },
        {
          "internalType": "uint256",
          "name": "needed",
          "type": "uint256"
        }
      ],
      "name": "ERC20InsufficientAllowance",
      "type": "error"
    },
    {
      "inputs": [
        {
          "internalType": "address",
          "name": "sender",
          "type": "address"
        },
        {
          "internalType": "uint256",
          "name": "balance",
          "type": "uint256"
        },
        {
          "internalType": "uint256",
          "name": "needed",
          "type": "uint256"
        }
      ],
      "name": "ERC20InsufficientBalance",
      "type": "error"
    },
    {
      "inputs": [
        {
          "internalType": "address",
          "name": "approver",
          "type": "address"
        }
      ],
      "name": "ERC20InvalidApprover",
      "type": "error"
    },
    {
      "inputs": [
        {
          "internalType": "address",
          "name": "receiver",
          "type": "address"
        }
      ],
      "name": "ERC20InvalidReceiver",
      "type": "error"
    },
    {
      "inputs": [
        {
          "internalType": "address",
          "name": "sender",
          "type": "address"
        }
      ],
      "name": "ERC20InvalidSender",
      "type": "error"
    },
    {
      "inputs": [
        {
          "internalType": "address",
          "name": "spender",
          "type": "address"
        }
      ],
      "name": "ERC20InvalidSpender",
      "type": "error"
    },
    {
      "inputs": [
        {
          "internalType": "address",
          "name": "owner",
          "type": "address"
        }
      ],
      "name": "OwnableInvalidOwner",
      "type": "error"
    },
    {
      "inputs": [
        {
          "internalType": "address",
          "name": "account",
          "type": "address"
        }
      ],
      "name": "OwnableUnauthorizedAccount",
      "type": "error"
    },
    {
      "anonymous": false,
      "inputs": [
        {
          "indexed": true,
          "internalType": "address",
          "name": "owner",
          "type": "address"
        },
        {
          "indexed": true,
          "internalType": "address",
          "name": "spender",
          "type": "address"
        },
        {
          "indexed": false,
          "internalType": "uint256",
          "name": "value",
          "type": "uint256"
        }
      ],
      "name": "Approval",
      "type": "event"
    },
    {
      "anonymous": false,
      "inputs": [
        {
          "indexed": false,
          "internalType": "uint256",
          "name": "oldLimit",
          "type": "uint256"
        },
        {
          "indexed": false,
          "internalType": "uint256",
          "name": "newLimit",
          "type": "uint256"
        }
      ],
      "name": "DailyLimitUpdated",
      "type": "event"
    },
    {
      "anonymous": false,
      "inputs": [
        {
          "indexed": true,
          "internalType": "address",
          "name": "previousOwner",
          "type": "address"
        },
        {
          "indexed": true,
          "internalType": "address",
          "name": "newOwner",
          "type": "address"
        }
      ],
      "name": "OwnershipTransferred",
      "type": "event"
    },
    {
      "anonymous": false,
      "inputs": [
        {
          "indexed": true,
          "internalType": "address",
          "name": "oldPool",
          "type": "address"
        },
        {
          "indexed": true,
          "internalType": "address",
          "name": "newPool",
          "type": "address"
        }
      ],
      "name": "RewardPoolUpdated",
      "type": "event"
    },
    {
      "anonymous": false,
      "inputs": [
        {
          "indexed": true,
          "internalType": "address",
          "name": "to",
          "type": "address"
        },
        {
          "indexed": false,
          "internalType": "uint256",
          "name": "amount",
          "type": "uint256"
        },
        {
          "indexed": false,
          "internalType": "string",
          "name": "reason",
          "type": "string"
        }
      ],
      "name": "TokensMinted",
      "type": "event"
    },
    {
      "anonymous": false,
      "inputs": [
        {
          "indexed": true,
          "internalType": "address",
          "name": "from",
          "type": "address"
        },
        {
          "indexed": true,
          "internalType": "address",
          "name": "to",
          "type": "address"
        },
        {
          "indexed": false,
          "internalType": "uint256",
          "name": "value",
          "type": "uint256"
        }
      ],
      "name": "Transfer",
      "type": "event"
    },
    {
      "inputs": [],
      "name": "INITIAL_SUPPLY",
      "outputs": [
        {
          "internalType": "uint256",
          "name": "",
          "type": "uint256"
        }
      ],
      "stateMutability": "view",
      "type": "function"
    },
    {
      "inputs": [],
      "name": "MAX_SUPPLY",
      "outputs": [
        {
          "internalType": "uint256",
          "name": "",
          "type": "uint256"
        }
      ],
      "stateMutability": "view",
      "type": "function"
    },
    {
      "inputs": [
        {
          "internalType": "address",
          "name": "owner",
          "type": "address"
        },
        {
          "internalType": "address",
          "name": "spender",
          "type": "address"
        }
      ],
      "name": "allowance",
      "outputs": [
        {
          "internalType": "uint256",
          "name": "",
          "type": "uint256"
        }
      ],
      "stateMutability": "view",
      "type": "function"
    },
    {
      "inputs": [
        {
          "internalType": "address",
          "name": "spender",
          "type": "address"
        },
        {
          "internalType": "uint256",
          "name": "value",
          "type": "uint256"
        }
      ],
      "name": "approve",
      "outputs": [
        {
          "internalType": "bool",
          "name": "",
          "type": "bool"
        }
      ],
      "stateMutability": "nonpayable",
      "type": "function"
    },
    {
      "inputs": [
        {
          "internalType": "address",
          "name": "account",
          "type": "address"
        }
      ],
      "name": "balanceOf",
      "outputs": [
        {
          "internalType": "uint256",
          "name": "",
          "type": "uint256"
        }
      ],
      "stateMutability": "view",
      "type": "function"
    },
    {
      "inputs": [
        {
          "internalType": "address[]",
          "name": "recipients",
          "type": "address[]"
        },
        {
          "internalType": "uint256[]",
          "name": "amounts",
          "type": "uint256[]"
        }
      ],
      "name": "batchMint",
      "outputs": [],
      "stateMutability": "nonpayable",
      "type": "function"
    },
    {
      "inputs": [
        {
          "internalType": "uint256",
          "name": "value",
          "type": "uint256"
        }
      ],
      "name": "burn",
      "outputs": [],
      "stateMutability": "nonpayable",
      "type": "function"
    },
    {
      "inputs": [
        {
          "internalType": "address",
          "name": "account",
          "type": "address"
        },
        {
          "internalType": "uint256",
          "name": "value",
          "type": "uint256"
        }
      ],
      "name": "burnFrom",
      "outputs": [],
      "stateMutability": "nonpayable",
      "type": "function"
    },
    {
      "inputs": [],
      "name": "dailyMintLimit",
      "outputs": [
        {
          "internalType": "uint256",
          "name": "",
          "type": "uint256"
        }
      ],
      "stateMutability": "view",
      "type": "function"
    },
    {
      "inputs": [],
      "name": "decimals",
      "outputs": [
        {
          "internalType": "uint8",
          "name": "",
          "type": "uint8"
        }
      ],
      "stateMutability": "view",
      "type": "function"
    },
    {
      "inputs": [],
      "name": "getRemainingDailyMint",
      "outputs": [
        {
          "internalType": "uint256",
          "name": "",
          "type": "uint256"
        }
      ],
      "stateMutability": "view",
      "type": "function"
    },
    {
      "inputs": [],
      "name": "getRemainingSupply",
      "outputs": [
        {
          "internalType": "uint256",
          "name": "",
          "type": "uint256"
        }
      ],
      "stateMutability": "view",
      "type": "function"
    },
    {
      "inputs": [],
      "name": "lastMintReset",
      "outputs": [
        {
          "internalType": "uint256",
          "name": "",
          "type": "uint256"
        }
      ],
      "stateMutability": "view",
      "type": "function"
    },
    {
      "inputs": [
        {
          "internalType": "address",
          "name": "to",
          "type": "address"
        },
        {
          "internalType": "uint256",
          "name": "amount",
          "type": "uint256"
        },
        {
          "internalType": "string",
          "name": "reason",
          "type": "string"
        }
      ],
      "name": "mint",
      "outputs": [],
      "stateMutability": "nonpayable",
      "type": "function"
    },
    {
      "inputs": [],
      "name": "mintedToday",
      "outputs": [
        {
          "internalType": "uint256",
          "name": "",
          "type": "uint256"
        }
      ],
      "stateMutability": "view",
      "type": "function"
    },
    {
      "inputs": [],
      "name": "name",
      "outputs": [
        {
          "internalType": "string",
          "name": "",
          "type": "string"
        }
      ],
      "stateMutability": "view",
      "type": "function"
    },
    {
      "inputs": [],
      "name": "owner",
      "outputs": [
        {
          "internalType": "address",
          "name": "",
          "type": "address"
        }
      ],
      "stateMutability": "view",
      "type": "function"
    },
    {
      "inputs": [],
      "name": "renounceOwnership",
      "outputs": [],
      "stateMutability": "nonpayable",
      "type": "function"
    },
    {
      "inputs": [],
      "name": "rewardPool",
      "outputs": [
        {
          "internalType": "address",
          "name": "",
          "type": "address"
        }
      ],
      "stateMutability": "view",
      "type": "function"
    },
    {
      "inputs": [
        {
          "internalType": "uint256",
          "name": "_newLimit",
          "type": "uint256"
        }
      ],
      "name": "setDailyMintLimit",
      "outputs": [],
      "stateMutability": "nonpayable",
      "type": "function"
    },
    {
      "inputs": [
        {
          "internalType": "address",
          "name": "_rewardPool",
          "type": "address"
        }
      ],
      "name": "setRewardPool",
      "outputs": [],
      "stateMutability": "nonpayable",
      "type": "function"
    },
    {
      "inputs": [],
      "name": "symbol",
      "outputs": [
        {
          "internalType": "string",
          "name": "",
          "type": "string"
        }
      ],
      "stateMutability": "view",
      "type": "function"
    },
    {
      "inputs": [],
      "name": "totalSupply",
      "outputs": [
        {
          "internalType": "uint256",
          "name": "",
          "type": "uint256"
        }
      ],
      "stateMutability": "view",
      "type": "function"
    },
    {
      "inputs": [
        {
          "internalType": "address",
          "name": "to",
          "type": "address"
        },
        {
          "internalType": "uint256",
          "name": "value",
          "type": "uint256"
        }
      ],
      "name": "transfer",
      "outputs": [
        {
          "internalType": "bool",
          "name": "",
          "type": "bool"
        }
      ],
      "stateMutability": "nonpayable",
      "type": "function"
    },
    {
      "inputs": [
        {
          "internalType": "address",
          "name": "from",
          "type": "address"
        },
        {
          "internalType": "address",
          "name": "to",
          "type": "address"
        },
        {
          "internalType": "uint256",
          "name": "value",
          "type": "uint256"
        }
      ],
      "name": "transferFrom",
      "outputs": [
        {
          "internalType": "bool",
          "name": "",
          "type": "bool"
        }
      ],
      "stateMutability": "nonpayable",
      "type": "function"
    },
    {
      "inputs": [
        {
          "internalType": "address",
          "name": "newOwner",
          "type": "address"
        }
      ],
      "name": "transferOwnership",
      "outputs": [],
      "stateMutability": "nonpayable",
      "type": "function"
    }
  ],
  "bytecode": "0x608060405269021e19e0c9bab24000006007553480156200001f57600080fd5b506040516200179f3803806200179f8339810160408190526200004291620002c9565b806040518060400160405280600b81526020016a29b430b938102a37b5b2b760a91b81525060405180604001604052806005815260200164053484152560dc1b8152508160039081620000969190620003a0565b506004620000a58282620003a0565b5050506001600160a01b038116620000d857604051631e4fbdf760e01b8152600060048201526024015b60405180910390fd5b620000e38162000106565b50620000fb816a52b7d2dcc80cd2e400000062000158565b504260085562000494565b600580546001600160a01b038381166001600160a01b0319831681179093556040519116919082907f8be0079c531659141344cd1fd0a4f28419497f9722a3daafe3b4186f6b6457e090600090a35050565b6001600160a01b038216620001845760405163ec442f0560e01b815260006004820152602401620000cf565b620001926000838362000196565b5050565b6001600160a01b038316620001c5578060026000828254620001b991906200046c565b90915550620002399050565b6001600160a01b038316600090815260208190526040902054818110156200021a5760405163391434e360e21b81526001600160a01b03851660048201526024810182905260448101839052606401620000cf565b6001600160a01b03841660009081526020819052604090209082900390555b6001600160a01b038216620002575760028054829003905562000276565b6001600160a01b03821660009081526020819052604090208054820190555b816001600160a01b0316836001600160a01b03167fddf252ad1be2c89b69c2b068fc378daa952ba7f163c4a11628f55a4df523b3ef83604051620002bc91815260200190565b60405180910390a3505050565b600060208284031215620002dc57600080fd5b81516001600160a01b0381168114620002f457600080fd5b9392505050565b634e487b7160e01b600052604160045260246000fd5b600181811c908216806200032657607f821691505b6020821081036200034757634e487b7160e01b600052602260045260246000fd5b50919050565b601f8211156200039b57600081815260208120601f850160051c81016020861015620003765750805b601f850160051c820191505b81811015620003975782815560010162000382565b5050505b505050565b81516001600160401b03811115620003bc57620003bc620002fb565b620003d481620003cd845462000311565b846200034d565b602080601f8311600181146200040c5760008415620003f35750858301515b600019600386901b1c1916600185901b17855562000397565b600085815260208120601f198616915b828110156200043d578886015182559484019460019091019084016200041c565b50858210156200045c5787850151600019600388901b60f8161c191681555b5050505050600190811b01905550565b808201808211156200048e57634e487b7160e01b600052601160045260246000fd5b92915050565b6112fb80620004a46000396000f3fe608060405234801561001057600080fd5b506004361061018e5760003560e01c8063715018a6116100de578063b2d52d2711610097578063d3fc986411610071578063d3fc986414610339578063dd62ed3e1461034c578063e4b7fb7314610385578063f2fde38b1461038d57600080fd5b8063b2d52d2714610315578063b7c140dd14610328578063ca42c1231461033157600080fd5b8063715018a6146102bb57806378238c37146102c357806379cc6790146102d65780638da5cb5b146102e957806395d89b41146102fa578063a9059cbb1461030257600080fd5b806332cb6b0c1161014b57806362680e4b1161012557806362680e4b1461024b57806366666aa914610254578063685731071461027f57806370a082311461029257600080fd5b806332cb6b0c1461021a57806342966c681461022d57806353797bb71461024257600080fd5b806306fdde0314610193578063095ea7b3146101b157806318160ddd146101d457806323b872dd146101e65780632ff2e9dc146101f9578063313ce5671461020b575b600080fd5b61019b6103a0565b6040516101a89190610eb7565b60405180910390f35b6101c46101bf366004610eed565b610432565b60405190151581526020016101a8565b6002545b6040519081526020016101a8565b6101c46101f4366004610f17565b61044c565b6101d86a52b7d2dcc80cd2e400000081565b604051601281526020016101a8565b6101d86b033b2e3c9fd0803ce800000081565b61024061023b366004610f53565b610470565b005b6101d860085481565b6101d860075481565b600654610267906001600160a01b031681565b6040516001600160a01b0390911681526020016101a8565b61024061028d366004611042565b61047d565b6101d86102a0366004611102565b6001600160a01b031660009081526020819052604090205490565b610240610727565b6102406102d1366004611102565b61073b565b6102406102e4366004610eed565b6107e7565b6005546001600160a01b0316610267565b61019b610800565b6101c4610310366004610eed565b61080f565b610240610323366004610f53565b61081d565b6101d860095481565b6101d8610866565b61024061034736600461111d565b61089b565b6101d861035a3660046111cc565b6001600160a01b03918216600090815260016020908152604080832093909416825291909152205490565b6101d8610a41565b61024061039b366004611102565b610a62565b6060600380546103af906111ff565b80601f01602080910402602001604051908101604052809291908181526020018280546103db906111ff565b80156104285780601f106103fd57610100808354040283529160200191610428565b820191906000526020600020905b81548152906001019060200180831161040b57829003601f168201915b5050505050905090565b600033610440818585610a9d565b60019150505b92915050565b60003361045a858285610aaf565b610465858585610b28565b506001949350505050565b61047a3382610b87565b50565b610485610bbd565b80518251146104d35760405162461bcd60e51b8152602060048201526015602482015274082e4e4c2f240d8cadccee8d040dad2e6dac2e8c6d605b1b60448201526064015b60405180910390fd5b60648251111561051b5760405162461bcd60e51b8152602060048201526013602482015272546f6f206d616e7920726563697069656e747360681b60448201526064016104ca565b6000805b82518110156105615782818151811061053a5761053a611239565b60200260200101518261054d9190611265565b91508061055981611278565b91505061051f565b506b033b2e3c9fd0803ce80000008161057960025490565b6105839190611265565b11156105c65760405162461bcd60e51b815260206004820152601260248201527145786365656473206d617820737570706c7960701b60448201526064016104ca565b6008546105d69062015180611265565b42106105e6574260085560006009555b600754816009546105f79190611265565b11156106405760405162461bcd60e51b8152602060048201526018602482015277115e18d959591cc819185a5b1e481b5a5b9d081b1a5b5a5d60421b60448201526064016104ca565b80600960008282546106529190611265565b90915550600090505b83518110156107215760006001600160a01b031684828151811061068157610681611239565b60200260200101516001600160a01b0316036106d35760405162461bcd60e51b8152602060048201526011602482015270125b9d985b1a59081c9958da5c1a595b9d607a1b60448201526064016104ca565b61070f8482815181106106e8576106e8611239565b602002602001015184838151811061070257610702611239565b6020026020010151610bea565b8061071981611278565b91505061065b565b50505050565b61072f610bbd565b6107396000610c20565b565b610743610bbd565b6001600160a01b03811661078b5760405162461bcd60e51b815260206004820152600f60248201526e496e76616c6964206164647265737360881b60448201526064016104ca565b6006546040516001600160a01b038084169216907f172da71f1c616b61d83038d9d8679e9f8592d8405647a400b24bf1852cecaed790600090a3600680546001600160a01b0319166001600160a01b0392909216919091179055565b6107f2823383610aaf565b6107fc8282610b87565b5050565b6060600480546103af906111ff565b600033610440818585610b28565b610825610bbd565b60075460408051918252602082018390527f207c4cbdf55ec315a13f0d5e047732ec5d947da056e706593aa509909941cedf910160405180910390a1600755565b6000600854620151806108799190611265565b4210610886575060075490565b6009546007546108969190611291565b905090565b6108a3610bbd565b6001600160a01b0383166108f95760405162461bcd60e51b815260206004820152601b60248201527f43616e6e6f74206d696e7420746f207a65726f2061646472657373000000000060448201526064016104ca565b6b033b2e3c9fd0803ce80000008261091060025490565b61091a9190611265565b111561095d5760405162461bcd60e51b815260206004820152601260248201527145786365656473206d617820737570706c7960701b60448201526064016104ca565b60085461096d9062015180611265565b421061097d574260085560006009555b6007548260095461098e9190611265565b11156109d75760405162461bcd60e51b8152602060048201526018602482015277115e18d959591cc819185a5b1e481b5a5b9d081b1a5b5a5d60421b60448201526064016104ca565b81600960008282546109e99190611265565b909155506109f990508383610bea565b826001600160a01b03167f9d89e36eadf856db0ad9ffb5a569e07f95634dddd9501141ecf04820484ad0dc8383604051610a349291906112a4565b60405180910390a2505050565b6000610a4c60025490565b610896906b033b2e3c9fd0803ce8000000611291565b610a6a610bbd565b6001600160a01b038116610a9457604051631e4fbdf760e01b8152600060048201526024016104ca565b61047a81610c20565b610aaa8383836001610c72565b505050565b6001600160a01b038381166000908152600160209081526040808320938616835292905220546000198110156107215781811015610b1957604051637dc7a0d960e11b81526001600160a01b038416600482015260248101829052604481018390526064016104ca565b61072184848484036000610c72565b6001600160a01b038316610b5257604051634b637e8f60e11b8152600060048201526024016104ca565b6001600160a01b038216610b7c5760405163ec442f0560e01b8152600060048201526024016104ca565b610aaa838383610d47565b6001600160a01b038216610bb157604051634b637e8f60e11b8152600060048201526024016104ca565b6107fc82600083610d47565b6005546001600160a01b031633146107395760405163118cdaa760e01b81523360048201526024016104ca565b6001600160a01b038216610c145760405163ec442f0560e01b8152600060048201526024016104ca565b6107fc60008383610d47565b600580546001600160a01b038381166001600160a01b0319831681179093556040519116919082907f8be0079c531659141344cd1fd0a4f28419497f9722a3daafe3b4186f6b6457e090600090a35050565b6001600160a01b038416610c9c5760405163e602df0560e01b8152600060048201526024016104ca565b6001600160a01b038316610cc657604051634a1406b160e11b8152600060048201526024016104ca565b6001600160a01b038085166000908152600160209081526040808320938716835292905220829055801561072157826001600160a01b0316846001600160a01b03167f8c5be1e5ebec7d5bd14f71427d1e84f3dd0314c0f7b2291e5b200ac8c7c3b92584604051610d3991815260200190565b60405180910390a350505050565b6001600160a01b038316610d72578060026000828254610d679190611265565b90915550610de49050565b6001600160a01b03831660009081526020819052604090205481811015610dc55760405163391434e360e21b81526001600160a01b038516600482015260248101829052604481018390526064016104ca565b6001600160a01b03841660009081526020819052604090209082900390555b6001600160a01b038216610e0057600280548290039055610e1f565b6001600160a01b03821660009081526020819052604090208054820190555b816001600160a01b0316836001600160a01b03167fddf252ad1be2c89b69c2b068fc378daa952ba7f163c4a11628f55a4df523b3ef83604051610e6491815260200190565b60405180910390a3505050565b6000815180845260005b81811015610e9757602081850181015186830182015201610e7b565b506000602082860101526020601f19601f83011685010191505092915050565b602081526000610eca6020830184610e71565b9392505050565b80356001600160a01b0381168114610ee857600080fd5b919050565b60008060408385031215610f0057600080fd5b610f0983610ed1565b946020939093013593505050565b600080600060608486031215610f2c57600080fd5b610f3584610ed1565b9250610f4360208501610ed1565b9150604084013590509250925092565b600060208284031215610f6557600080fd5b5035919050565b634e487b7160e01b600052604160045260246000fd5b604051601f8201601f1916810167ffffffffffffffff81118282101715610fab57610fab610f6c565b604052919050565b600067ffffffffffffffff821115610fcd57610fcd610f6c565b5060051b60200190565b600082601f830112610fe857600080fd5b81356020610ffd610ff883610fb3565b610f82565b82815260059290921b8401810191818101908684111561101c57600080fd5b8286015b848110156110375780358352918301918301611020565b509695505050505050565b6000806040838503121561105557600080fd5b823567ffffffffffffffff8082111561106d57600080fd5b818501915085601f83011261108157600080fd5b81356020611091610ff883610fb3565b82815260059290921b840181019181810190898411156110b057600080fd5b948201945b838610156110d5576110c686610ed1565b825294820194908201906110b5565b965050860135925050808211156110eb57600080fd5b506110f885828601610fd7565b9150509250929050565b60006020828403121561111457600080fd5b610eca82610ed1565b60008060006060848603121561113257600080fd5b61113b84610ed1565b92506020808501359250604085013567ffffffffffffffff8082111561116057600080fd5b818701915087601f83011261117457600080fd5b81358181111561118657611186610f6c565b611198601f8201601f19168501610f82565b915080825288848285010111156111ae57600080fd5b80848401858401376000848284010152508093505050509250925092565b600080604083850312156111df57600080fd5b6111e883610ed1565b91506111f660208401610ed1565b90509250929050565b600181811c9082168061121357607f821691505b60208210810361123357634e487b7160e01b600052602260045260246000fd5b50919050565b634e487b7160e01b600052603260045260246000fd5b634e487b7160e01b600052601160045260246000fd5b808201808211156104465761044661124f565b60006001820161128a5761128a61124f565b5060010190565b818103818111156104465761044661124f565b8281526040602082015260006112bd6040830184610e71565b94935050505056fea2646970667358221220cd94015b2b13d27216bd6f48a81efe69fff75fbc91aedf80125ccefd77f100a264736f6c63430008140033",
  "linkReferences": {},
  "deployedLinkReferences": {}
}